:020000040800F2
:1000000010040020D10000087B09000879090008CD
:1000100000000000000000000000000000000000E0
:100020000000000000000000000000007F09000840
:1000300000000000000000007D09000881090008A0
:10004000E3000008E3000008E3000008E300000804
:10005000E3000008E3000008E3000008E3000008F4
:10006000E3000008E3000008E3000008E3000008E4
:10007000E3000008E3000008E3000008E3000008D4
:10008000E3000008E3000008E3000008E3000008C4
:10009000E3000008E3000008E3000008E3000008B4
:1000A000E3000008E3000008E3000008E3000008A4
:1000B000E3000008E3000008E30000080348854669
:1000C00000F03CF8004800475D0A000810040020DA
:1000D0000448804704480047FEE7FEE7FEE7FEE7E6
:1000E000FEE7FEE7E9090008BD00000830B50B4651
:1000F000014600202022012409E00D46D5409D4202
:1001000005D31D469540491B254695404019154687
:10011000521E002DF1DC30BDD2B201E00270401C55
:10012000491EFBD270470022F6E710B513460A4677
:1001300004461946FFF7F0FF204610BD064C012586
:10014000064E05E0E36807CC2B430C3C984710347F
:10015000B442F7D3FFF7B6FFF40A0008140B000807
:1001600070B5044600F0B6F80546601C02D004489D
:100170004068241800F0AEF8401BA042FAD370BDCE
:1001800000000020F0B5002388E001229A40944648
:10019000144022007ED04C68022C01D0122C0CD1CD
:1001A000DC08A40027183C6A5D07ED0E0F26AE4060
:1001B000B4430E69AE4026433E6205685E000324E8
:1001C000B4400F79A543BF07BF0FB7402F43076067
:1001D0004D68012D05D0022D03D0112D01D0122D17
:1001E0000ED18568CF68A543B7402F438760476825
:1001F0006546AF430D79ED06ED0F9D403D434560EB
:10020000C568A5438C68B4402C43C4604C68E400C6
:1002100043D59D08244CAD002F193C6E9D07EE0E72
:100220000F25B540AC4305252D07A84201D1002577
:100230000FE01E4DA84201D101250AE01C4DA84245
:1002400001D1022505E01B4DA84201D1032500E0A4
:100250000525B5402543144C3D66134D80352E6869
:100260004F689643FF0300D516432E606E684F68B3
:100270009643BF0300D516436E6025684E689543CC
:10028000F60200D51543256065684E689543B602B1
:1002900002D500E001E0154365605B1C0A68144666
:1002A000DA4000D071E7F0BD0018024000040050B1
:1002B00000080050000C005043690A469A4300D1E0
:1002C000090481617047002A01D081617047816211
:1002D000704700000148806870470000000000205F
:1002E00002488168426889188160704700000020D8
:1002F00010B50848002401688215114301602046AA
:1003000000F00AF8002801D0012401E000F028F8EC
:10031000204610BD0020024070B50F4E00247168C9
:100320000546002915D07D20C000FFF7DFFE0146FD
:100330000A480068FFF7DAFE00F006FB002808D143
:10034000042D06D200222946401E00F01FF8356019
:1003500000E00124204670BD000000200C000020B9
:1003600008B5094801680122114301600068104086
:10037000009005484038C26B01040A43C263C06B59
:100380000840009008BD00004010024010B500F089
:1003900033FB10BD10B50F4C21680322520291436C
:1003A00001432160C11FFF39FA390ED10A480621E5
:1003B000006848430949FFF799FE401C02E0002805
:1003C00005D0401E61694905F9D4002010BD032005
:1003D00010BD0000007000400C00002040420F00E3
:1003E000F8B50F46060043D04C4D28684007400F33
:1003F000B84213D22868C008C00038432860FFF70D
:1004000069FF044605E0FFF765FF011B4448814290
:1004100061D828684007400FB842F4D13068414C99
:1004200081070DD5400704D5A068072109030843BB
:10043000A060A0680F2109028843B1680843A0604A
:100440003078C00732D0706801280AD002280BD05B
:1004500000280FD03349403103280ED0C9698907DD
:1004600004E02168890301E021688901002906DB95
:100470000120F8BD21684905F8E7096AEFE7A1689E
:10048000C908C9000143A160FFF724FF009006E0FE
:10049000FFF720FF0099411A214881421BD8A0682C
:1004A000382108407168C9008842F1D128684007A6
:1004B000400FB84217D919480168C908C900394323
:1004C0000160FFF707FF054607E0FFF703FF411B49
:1004D0001348814201D90320F8BD10480068400745
:1004E000400FB842F1D13078400706D5A068072107
:1004F00009038843F1680843A06000F019F8A16877
:100500003C2289091140084A515CC906C90EC840FD
:10051000064908600020FFF7FFFEF8BD00200240FA
:100520008813000000100240B40A00080C000020EC
:1005300010B5204CA068204A8006400F16D0A06855
:100540008006410F501001290FD0A1688906490F7C
:10055000022912D0A0688006400F042823D0A0688A
:100560008006400F032821D0002010BD2068012103
:100570008004400F8140104612E0E1688B07E1687B
:100580009B0F4906490F491C032B00D01046FFF76B
:10059000ADFDE1684904490E4843E168490F491C33
:1005A000FFF7A4FD10BD0120C00310BD7D20000297
:1005B00010BD0000001002400024F400F8B5040053
:1005C00070D020783827C007D84D002846D0A968B9
:1005D000E86839408007800F102902D008290BD025
:1005E00001E0032808D001206268000482420AD199
:1005F00029680143296015E0286880032ED56068CA
:100600000028DDD02AE0052301211B0489049A4239
:100610002A6802D10A432A60EAE782432A602868EE
:1006200088432860606800280CD0FFF753FE064618
:1006300004E0FFF74FFE801B64286FD82868800312
:10064000F7D50BE0FFF746FE064604E0FFF742FE53
:10065000801B6428F1D828688003F7D420788007AD
:1006600065D5A868E96838408A077F260721920F78
:100670003602C902102802D0002814D001E0022A54
:1006800011D0E068002840D02868884321690843D9
:1006900028602868FF21013108432860FFF71AFE0F
:1006A000074628E097E02A68520502D5E268002A4A
:1006B00086D06A686369B2431B021A436A600028E5
:1006C0000ED12868884321690843286028680121E1
:1006D0008004400F81409648FFF708FD9549086067
:1006E0000020FFF719FE002875D120E0FFF7F2FD8A
:1006F000C01B0228A1D828684005F7D56868616941
:10070000B04309020843686011E02968FF20013006
:1007100081432960FFF7DEFD064605E098E0FFF71C
:10072000D9FD801B022888D828684005F7D4207896
:10073000814E00072ED5A8688006400F03280AD0F6
:10074000A0690028306A16D0012108433062FFF703
:10075000C1FD07460BE0306A80071BD5A069002861
:1007600039D017E0FFF7B6FDC01B022870D8306AF9
:100770008007F7D50EE0400840003062FFF7AAFD81
:10078000074604E0FFF7A6FDC01B022860D8306AC8
:100790008007F7D4207840076CD5A868002780062A
:1007A000400F042818D0E86BC00008D4E96B012082
:1007B00000070143E963E96B0140012700915F48AD
:1007C0000168C90519D40168821511430160FFF75A
:1007D00081FD00900DE083E0F06980074AD5A068B4
:1007E00000287DD046E0FFF775FD0099401A0228E9
:1007F0002ED852480068C005F5D5A168012910D04F
:1008000004200529F16911D049084900F161F16915
:100810008143F161A068002816D0FFF75BFD0090CE
:100820000EE0F06901210843F061F3E70143F16153
:10083000F7E7FFF74FFD0099411A414881426BD815
:10084000F0698007F5D50EE0FFF744FD009007E062
:1008500062E0FFF73FFD0099411A394881425BD8B9
:10086000F0698007F5D4002F04D0E86B0121090757
:100870008843E863E069002853D0A9688906490FD6
:10088000022950D001263606022828680DD0B04330
:100890002860E86880088000E860E8682949084026
:1008A000E860FFF717FD044638E0B0432860FFF723
:1008B00011FD074604E0FFF70DFDC01B02282BD8F1
:1008C00028688001F7D4216B606BA26A0843E16A53
:1008D000120211430843616A0843216A084300E099
:1008E00021E0E860286830432860E86801210907B2
:1008F0000843E860FFF7EEFC044604E0FFF7EAFC7B
:10090000001B022808D828688001F7D509E0FFF706
:10091000E1FC001B022801D90320F8BD28688001F2
:10092000F5D40020F8BD0120F8BD00000010024001
:100930000024F4000C000020401002400070004031
:1009400088130000FFFFFEEE094910B5401E8842E3
:1009500001D9012010BD074C60610321081F00F080
:100960004BF80020A06107202061002010BD00008E
:10097000FFFFFF0000E000E0FEE7704770477047B0
:1009800010B5FFF7ADFC10BD30B593B03821684607
:10099000FFF7C9FB002401200E940F94109440022D
:1009A0001194FFF7F7FC0225E80103900095402021
:1009B000059008200A9080030B90079500020C9088
:1009C0000895000104940D9009946846FFF7F6FD20
:1009D00007200E90109402210F9511940EA8FFF796
:1009E000FFFC13B030BD000001200249C006886042
:1009F0007047000000ED00E08307FF22DB0E9A4005
:100A00008907090E9940002808DB830809489B00E4
:100A10001B18186890430843186070470007000FC0
:100A20000838830804489B001B18D8699043084382
:100A3000D861704700E400E000ED00E002E008C883
:100A4000121F08C1002AFAD170477047002001E048
:100A500001C1121F002AFBD17047000086B0FFF7CA
:100A600047FCFFF791FF14216846FFF75CFB104835
:100A7000416B012529434163406B0524284024072D
:100A80000590002220212046FFF71DFC2020009029
:100A9000002002900390019569462046FFF772FB03
:100AA00020212046FFF708FC6420FFF759FBF7E7F9
:100AB00000100240000000000000000000000000E4
:100AC0000000000000000000000000000000000026
:100AD0000000000001000000020000000300000010
:100AE00004000000060000000700000008000000ED
:100AF00009000000140B0008000000201000000096
:100B00003C0A0008240B000810000020000400002C
:100B10004C0A000804000000010000000000000072
:040B20000024F400B9
:04000005080000BD32
:00000001FF
