:020000040800F2
:1000000068050020D1000008410F0008F50E000827
:1000100000000000000000000000000000000000E0
:10002000000000000000000000000000450F000874
:100030000000000000000000430F0008470F000808
:10004000E3000008E3000008E3000008E300000804
:10005000E3000008E3000008E3000008E3000008F4
:10006000E3000008E3000008E3000008E3000008E4
:10007000E3000008E3000008E3000008E3000008D4
:10008000E3000008E3000008E3000008E3000008C4
:10009000E3000008E3000008E3000008E3000008B4
:1000A000E3000008E3000008E3000008E3000008A4
:1000B000E3000008E3000008E30000080348854669
:1000C00000F0B2F800480047911A000868050020C7
:1000D0000448804704480047FEE7FEE7FEE7FEE7E6
:1000E000FEE7FEE7C10F0008BD00000830B50B4673
:1000F000014600202022012409E00D46D5409D4202
:1001000005D31D469540491B254695404019154687
:10011000521E002DF1DC30BDF0B51FB406460020A4
:1001200082B005464024019100901BE001992246CF
:100130000F46304600F067F8049A059B801A9941F3
:1001400010D310461946224600F04DF8361A8F415A
:100150000197224601200021009F00F044F8381842
:100160004D4100902046641E0028DFDC019B009872
:100170002946324607B0F0BD03460B439B0703D028
:1001800009E008C9121F08C0042AFAD203E00B785C
:100190000370401C491C521EF9D27047D2B201E0D4
:1001A0000270401C491EFBD270470022F6E710B5D2
:1001B00013460A4604461946FFF7F0FF204610BDD5
:1001C000421E5378521C002BFBD10B781370491C34
:1001D000521C002BF9D17047421C0178401C0029A9
:1001E000FBD1801A704710B5202A04DB0146203A63
:1001F0009140002010BD914020239C1A0346E3400B
:100200001943904010BD10B5202A04DB0846203A5F
:10021000D040002110BD0B46D340D0402024A21A6C
:1002200091400843194610BD064C0125064E05E0D5
:10023000E36807CC2B430C3C98471034B442F7D307
:10024000FFF740FFBC1D0008DC1D000870B5044628
:1002500000F0B6F80546601C02D004484068241837
:1002600000F0AEF8401BA042FAD370BDC8000020D9
:10027000F0B5002388E001229A4094461440220001
:100280007ED04C68022C01D0122C0CD1DC08A400CA
:1002900027183C6A5D07ED0E0F26AE40B4430E6989
:1002A000AE4026433E6205685E000324B4400F79E9
:1002B000A543BF07BF0FB7402F4307604D68012D0F
:1002C00005D0022D03D0112D01D0122D0ED185683D
:1002D000CF68A543B7402F43876047686546AF4363
:1002E0000D79ED06ED0F9D403D434560C568A54382
:1002F0008C68B4402C43C4604C68E40043D59D082E
:10030000244CAD002F193C6E9D07EE0E0F25B54015
:10031000AC4305252D07A84201D100250FE01E4D55
:10032000A84201D101250AE01C4DA84201D10225B5
:1003300005E01B4DA84201D1032500E00525B5408D
:100340002543144C3D66134D80352E684F68964307
:10035000FF0300D516432E606E684F689643BF03B7
:1003600000D516436E6025684E689543F60200D5A9
:100370001543256065684E689543B60202D500E0D6
:1003800001E0154365605B1C0A681446DA4000D042
:1003900071E7F0BD00180240000400500008005052
:1003A000000C005043690A469A4300D10904816158
:1003B0007047002A01D08161704781627047000058
:1003C0000148806870470000C8000020024881682A
:1003D0004268891881607047C800002010B508483D
:1003E00000240168821511430160204600F00AF8DC
:1003F000002801D0012401E000F028F8204610BDBB
:100400000020024070B50F4E002471680546002997
:1004100015D07D20C000FFF769FE01460A4800683C
:10042000FFF764FE00F00AFC002808D1042D06D274
:1004300000222946401E00F01FF8356000E001242C
:10044000204670BDC8000020D400002008B509482F
:1004500001680122114301600068104000900548C6
:100460004038C26B01040A43C263C06B084000906D
:1004700008BD00004010024010B501F0E3F910BDC6
:1004800010B50F4C216803225202914301432160B1
:10049000C11FFF39FA390ED10A48062100684843C6
:1004A0000949FFF723FE401C02E0002805D0401E4A
:1004B00061694905F9D4002010BD032010BD00007A
:1004C00000700040D400002040420F00FEB50446FA
:1004D00000680027704D714E800355D500200090B4
:1004E000F06BC00007D4F16BA8050143F163F16B19
:1004F0000140012000906A480168821511430160A3
:10050000FFF75EFF019005E0FFF75AFF0199401ADF
:10051000022825D862480068C005F5D5E86903219E
:10052000090208400FD0216B81420CD0E8690321F9
:100530000902EA698843012109040A43EA61EA6978
:100540008A43EA61E861C0070FD0FFF739FF0190E5
:1005500008E0FFF735FF0199411A5248814201D95D
:10056000032709E0E8698007F3D5E8690321090258
:100570008843216B0843E8610098002804D0F16BA0
:10058000012000078143F1632078C00705D0686926
:10059000616880088000084368612078800705D57D
:1005A00068690C218843A168084368612078800647
:1005B00006D56869032189028843E16808436861B8
:1005C0002088800506D56869032189048843A169CC
:1005D000084368612088400506D56869032109053C
:1005E0008843E169084368612078400606D5686958
:1005F0000321090388432169084368612088400476
:100600000ED56869216A800080080843686101216D
:10061000206A8907884203D1F06889130843F06093
:100620002068000305D5686940218843616A084352
:100630006861206881021C480BD569698210A36A31
:10064000914319436961A16A914202D1F168014362
:10065000F160216849020AD56969E26A8143114360
:100660006961E16A814202D1F1680143F160208849
:1006700000050FD568690321890388436169084330
:100680006861012160698903884203D1F0688900AB
:100690000843F0603846FEBD4010024000100240A2
:1006A000007000408813000000000001F8B50F46FC
:1006B000060043D04C4D28684007400FB84213D283
:1006C0002868C008C00038432860FFF779FE044658
:1006D00005E0FFF775FE011B4448814261D8286898
:1006E0004007400FB842F4D13068414C81070DD526
:1006F000400704D5A068072109030843A060A0684B
:100700000F2109028843B1680843A0603078C00710
:1007100032D0706801280AD002280BD000280FD0F0
:100720003349403103280ED0C969890704E02168A4
:10073000890301E021688901002906DB0120F8BD59
:1007400021684905F8E7096AEFE7A168C908C90007
:100750000143A160FFF734FE009006E0FFF730FE92
:100760000099411A214881421BD8A06838210840CD
:100770007168C9008842F1D128684007400FB8422B
:1007800017D919480168C908C90039430160FFF742
:1007900017FE054607E0FFF713FE411B1348814291
:1007A00001D90320F8BD104800684007400FB84247
:1007B000F1D13078400706D5A068072109038843A6
:1007C000F1680843A06000F02DF8A1683C22890977
:1007D0001140084A515CC906C90EC8400649086064
:1007E0000020FFF70FFEF8BD002002408813000034
:1007F00000100240581C0008D40000200648074999
:10080000006889681C22890A1140054A515CC906A2
:10081000C90EC84070470000D400002000100240FC
:10082000981C000810B5204CA068204A8006400F94
:1008300016D0A0688006410F501001290FD0A16882
:100840008906490F022912D0A0688006400F0428AB
:1008500023D0A0688006400F032821D0002010BDBF
:10086000206801218004400F8140104612E0E168B9
:100870008B07E1689B0F4906490F491C032B00D0E9
:100880001046FFF733FCE1684904490E4843E1682C
:10089000490F491CFFF72AFC10BD0120C00310BD01
:1008A0007D20000210BD0000001002400024F40072
:1008B000F8B5040070D020783827C007D84D00283C
:1008C00046D0A968E86839408007800F102902D017
:1008D00008290BD001E0032808D001206268000439
:1008E00082420AD129680143296015E02868800303
:1008F0002ED560680028DDD02AE0052301211B04E5
:1009000089049A422A6802D10A432A60EAE78243AC
:100910002A60286888432860606800280CD0FFF7A8
:100920004FFD064604E0FFF74BFD801B64286FD89F
:1009300028688003F7D50BE0FFF742FD064604E088
:10094000FFF73EFD801B6428F1D828688003F7D4A8
:100950002078800765D5A868E96838408A077F262F
:100960000721920F3602C902102802D0002814D0A5
:1009700001E0022A11D0E068002840D028688843AE
:100980002169084328602868FF2101310843286055
:10099000FFF716FD074628E097E02A68520502D5C2
:1009A000E268002A86D06A686369B2431B021A4370
:1009B0006A6000280ED128688843216908432860AE
:1009C000286801218004400F81409648FFF78EFB84
:1009D000954908600020FFF715FD002875D120E03B
:1009E000FFF7EEFCC01B0228A1D828684005F7D508
:1009F00068686169B04309020843686011E02968CA
:100A0000FF20013081432960FFF7DAFC064605E04C
:100A100098E0FFF7D5FC801B022888D8286840059D
:100A2000F7D42078814E00072ED5A8688006400FA5
:100A300003280AD0A0690028306A16D00121084393
:100A40003062FFF7BDFC07460BE0306A80071BD51C
:100A5000A069002839D017E0FFF7B2FCC01B0228BC
:100A600070D8306A8007F7D50EE040084000306249
:100A7000FFF7A6FC074604E0FFF7A2FCC01B022814
:100A800060D8306A8007F7D4207840076CD5A86812
:100A900000278006400F042818D0E86BC00008D457
:100AA000E96B012000070143E963E96B014001277D
:100AB00000915F480168C90519D401688215114386
:100AC0000160FFF77DFC00900DE083E0F069800796
:100AD0004AD5A06800287DD046E0FFF771FC009958
:100AE000401A02282ED852480068C005F5D5A168E2
:100AF000012910D004200529F16911D049084900C5
:100B0000F161F1698143F161A068002816D0FFF717
:100B100057FC00900EE0F06901210843F061F3E713
:100B20000143F161F7E7FFF74BFC0099411A414897
:100B300081426BD8F0698007F5D50EE0FFF740FCE5
:100B4000009007E062E0FFF73BFC0099411A39484A
:100B500081425BD8F0698007F5D4002F04D0E86BA0
:100B6000012109078843E863E069002853D0A96898
:100B70008906490F022950D0012636060228286826
:100B80000DD0B0432860E86880088000E860E8681D
:100B900029490840E860FFF713FC044638E0B043F9
:100BA0002860FFF70DFC074604E0FFF709FCC01BB7
:100BB00002282BD828688001F7D4216B606BA26AC9
:100BC0000843E16A120211430843616A0843216A3B
:100BD000084300E021E0E860286830432860E868C6
:100BE000012109070843E860FFF7EAFB044604E037
:100BF000FFF7E6FB001B022808D828688001F7D51C
:100C000009E0FFF7DDFB001B022801D90320F8BD36
:100C100028688001F5D40020F8BD0120F8BD00004F
:100C2000001002400024F400D400002040100240D4
:100C30000070004088130000FFFFFEEE094910B568
:100C4000401E884201D9012010BD074C606103217C
:100C5000081F00F0F7FD0020A061072020610020A0
:100C600010BD0000FFFFFF0000E000E030B50146CE
:100C700060310A7F012A18D001220A772423024614
:100C800080321446136003681A681D686D086D0091
:100C90001D6001235B079A430023436600680260DE
:100CA000202020600B77184630BD022030BDF8B5FB
:100CB000054604466035287F01281DD0012028778D
:100CC00024222046803007460260206806680268B9
:100CD0005208520002602068826807235B069A432C
:100CE0000A438260204600F073F9206806602020E5
:100CF000386000202877F8BD0220F8BDF8B5054619
:100D000004466035287F01281CD001202877242242
:100D10002046803007460260206806680268520854
:100D20005200026020688268D200D2080A438260C2
:100D3000204600F04DF92068066020203860002031
:100D40002877F8BD0220F8BD70B5040006D0204613
:100D5000803005460068002802D007E0012070BD01
:100D600000217C200155204600F026F82420286030
:100D700020680168490849000160204600F0F0F948
:100D80000128ECD0A06A002802D0204600F050F9DB
:100D9000206841680922D20291434160206881683D
:100DA0002A22914381602068016801221143016079
:100DB000204600F0A3F970BD10B586B0044614219A
:100DC0006846FFF7F2F91149206888421CD11048A3
:100DD000C26B49010A43C263C26B0A400592416B70
:100DE000012211434163406B6946104005900C207D
:100DF00000900220019000200290039006200490B1
:100E000005200007FFF734FA06B010BD008000404F
:100E100000100240FFB5074604468037386885B0A9
:100E20000D46202864D1002D0CD00798002809D049
:100E30000120A1680003814207D12069002804D164
:100E4000E80702D0012009B0F0BD204660300290D2
:100E5000007F01284CD00298012101770020B86062
:100E600021203860FFF7ACFA0190264640360798FB
:100E7000B0820798F0820120A1680003814202D16C
:100E80002069002802D00395002515E0002003907A
:100E900012E000228021204600F090FC002818D1AA
:100EA0000398002817D02168007888620398401CB6
:100EB0000390F08A401EF082F08A019B0028089877
:100EC0000090E6D100224021204600F077FC002867
:100ED00008D00320B7E728882168C005C00D8862C4
:100EE000AD1CE6E720203860029900200877AAE7C9
:100EF0000220A8E7FEE7000010B510480E49016087
:100F0000E1214902416000218160C160016181618C
:100F1000016241620C22816242614166FFF714FF67
:100F200000210648FFF7EAFE00210448FFF7BFFE54
:100F30000248FFF79BFE10BD00800040DC0000204F
:100F400070477047704710B5FFF740FA10BD30B5D5
:100F50009FB038216846FFF728F900241B941C94A1
:100F60001D9434210EA81E94FFF71FF901204002A2
:100F7000FFF786FA0225E8010390009540200590CE
:100F800008200A9080030B90079500020C900895AA
:100F9000000104940D9009946846FFF789FC07202E
:100FA0001B901D9402211C951E941BA8FFF77EFB2D
:100FB00020200E9011940EA8FFF788FA1FB030BDC4
:100FC00001200249C00688607047000000ED00E083
:100FD000F0B513A106C985B00192009112A206CA0C
:100FE000039202910446416E4034002915D00068F6
:100FF0008168806809014D0F400F02AE315C6F4679
:10100000385CC000FFF772F86085785D715DC000E4
:10101000FFF76CF8208505B0F0BD01206085F9E789
:101020000101010307010000080402040801010195
:1010300010B5018DC90707D001684A6801235B0418
:101040009A43C36A1A434A60018D890707D501682C
:101050004A6801231B049A43036B1A434A60018DBB
:10106000490707D501684A6801239B049A43436BEB
:101070001A434A60018D090707D501684A680123B0
:10108000DB039A43836B1A434A60018DC90607D577
:101090000268916801231B039943C36B1943916054
:1010A000018D890607D501688A6801235B039A438D
:1010B000036C1A438A60018D490612D503685A6889
:1010C00001210905446C8A4322435A60426C8A42DA
:1010D00007D10268516803235B059943836C194368
:1010E0005160018D090607D501684A680123DB04B8
:1010F000C06C9A4302434A6010BD0000FEB505462D
:10110000002680350446AE60FFF75AF9019020684A
:101110000068124F000709D50121009700224905F8
:101120002046019B00F04AFB00280DD12068006892
:1011300040070BD501210097002289052046019B1D
:1011400000F03CFB002801D00320FEBD20202860D9
:101150006860603426770020FEBD0000FFFFFF01BD
:10116000F8B50446036880682269E569104362693E
:1011700000262A431043626EF24902431868F24D7A
:101180002840104318602268506803231B039843CB
:10119000E368184350602268A0698A4201D0236A3C
:1011A00018439368E94D2B40034393602068C26A5B
:1011B000636A120912011A43C262E54B2068E54ACC
:1011C00098420AD152699207920F39D0012A3BD036
:1011D000022A37D0032A25D122E0DF4B98420AD1D8
:1011E00052690C231A402BD0042A2DD0082A29D06A
:1011F0000C2A17D114E0D94B984221D0D84B9842F1
:101200001ED088420ED1536903229202134017D098
:10121000012292029B1A17D09B1A13D0934201D13C
:10122000082700E01027FF25013588426FD1002FE5
:101230000CD0022F3BD0042F7CD0082F69D182E044
:101240000027F0E70227EEE70427ECE7FFF7D6FADE
:1012500072E0022129E0022812D0032812D00428CB
:1012600012D0052812D0062812D0072812D008283C
:1012700012D0092812D00A2812D00B2814D111E05C
:10128000042112E0062110E008210EE00A210CE002
:101290000C210AE0102108E0202106E0402104E0B2
:1012A000802102E0294600E0012110461AE0606A30
:1012B000002815D0012824D0022824D0032824D0C7
:1012C000042827D0052827D0062827D0072827D08C
:1012D000082827D0092827D00A2827D00B2827D06C
:1012E0000121A048FEF702FF002860D0616800914C
:1012F0004A008918814259D800990903814255D37F
:1013000056E00221EDE70421EBE70621E9E738E1A9
:1013100010E04BE00821E4E70A21E2E70C21E0E7D6
:101320001021DEE72021DCE74021DAE78021D8E741
:101330002946D6E7FFF776FA0246606A0028B3D05E
:10134000012888D185E7606A002815D0012817D0C8
:10135000022817D0032817D0042817D0052817D043
:10136000062817D0072817D0082817D0092817D023
:101370000A2817D00B2817D001210120C003B1E79C
:101380000221FAE70421F8E70621F6E70821F4E74D
:101390000A21F2E70C21F0E71021EEE72021ECE72B
:1013A0004021EAE78021E8E72946E6E70126DBE17C
:1013B000002F31D0022F7BD0042F72D0082FF5D10F
:1013C000606A002815D001286CD002286BD0032851
:1013D0006AD0042869D0052868D0062867D0072875
:1013E0007ED008287DD009287CD00A287BD00B2805
:1013F00000D00125002701202A463B46C0030021DA
:10140000FEF78AFE020E090211430202009840080C
:1014100010187941009A39E0FFF7F0F982E0012ACB
:1014200015D0022A15D0032A15D0042A15D0052A72
:1014300015D0062A15D0072A15D0082A15D0092A52
:1014400015D00A2A15D00B2A14D0012512E0022546
:1014500010E004250EE006250CE008250AE00A2528
:1014600008E00C2506E0102504E0202502E04025D8
:1014700000E080252A460023FEF74EFE020E0902F8
:101480001143626803025008181879410023FEF7DF
:1014900043FE03210902421A33498A4270D985E783
:1014A00006E03DE044E045E046E047E048E05DE03E
:1014B000606A00281AD001281ED002281ED00328F6
:1014C0001ED004281ED005281ED006281ED00728AE
:1014D0001ED008281ED009281ED00A281ED003E0DE
:1014E00046E047E048E049E00B2800D0012500270E
:1014F0002A463B461B4882E70225F8E70425F6E723
:101500000625F4E70825F2E70A25F0E70C25EEE7C3
:101510001025ECE72025EAE74025E8E78025E6E707
:10152000FFF780F90027626A3946002A8DD076E7F6
:1015300002255FE704255DE706255BE7082559E7F7
:101540000A2557E700800040F369FFCFFFF4FF1141
:101550000038014040100240004400400048004074
:10156000004C00400024F400FFFC0F000C2541E774
:1015700010253FE720253DE740253BE7802539E75B
:10158000F0E00122E069D20390426ED1002F06D034
:10159000022F35D0042F7AD0082F80D17AE0FFF7C0
:1015A0002DF976E0012815D0022815D0032815D092
:1015B000042815D0052815D0062815D0072815D0E1
:1015C000082815D0092815D00A2815D00B2814D0C2
:1015D000012512E0022510E004250EE006250CE0AE
:1015E00008250AE00A2508E00C2506E0102504E09D
:1015F000202502E0402500E08025294610461BE01A
:10160000606A002815D001282BD002282BD003288F
:101610002DD004282DD005282DD006282DD0072820
:101620002DD008282DD009282DD00A282DD00B2800
:1016300000D0012529465F48FEF758FD616840004B
:101640004A088018FEF752FD80B201465A4A103906
:10165000914200D9AAE6511C01400007400F0843FF
:1016600080E00225E6E70425E4E717E00FE0062521
:10167000E0E70825DEE70A25DCE70C25DAE7102598
:10168000D8E72025D6E74025D4E78025D2E7FFF725
:10169000C9F80246606A00289AD083E7002F06D076
:1016A000022F35D0042F7ED0082FD3D17EE0FFF754
:1016B000A5F87AE0012815D0022815D0032815D006
:1016C000042815D0052815D0062815D0072815D0D0
:1016D000082815D0092815D00A2815D00B2814D0B1
:1016E000012512E0022510E004250EE006250CE09D
:1016F00008250AE00A2508E00C2506E0102504E08C
:10170000202502E0402500E08025294610461BE008
:10171000606A002815D0012830D0022830D0032874
:1017200030D0042831D0052831D0062831D0072800
:1017300031D0082831D0092831D00A2831D00B28DF
:1017400000D0012529461B48FEF7D0FC61684A08F5
:101750008018FEF7CBFC80B20146174A103991423F
:1017600000D923E62168C860204601214030418528
:1017700001850020E06620673046F8BD0225E1E7DC
:101780000425DFE70625DDE70DE00825DAE70A2571
:10179000D8E70C25D6E71025D4E72025D2E7402549
:1017A000D0E78025CEE7FFF73DF80246606A0028C3
:1017B00096D07FE70024F400EFFF0000FFB581B072
:1017C00017460E4604460A9D09E0681C07D0FEF73E
:1017D000F7FD0499401AA8420CD8002D0AD02068C1
:1017E000C169304688431AD00020B842EDD00020AD
:1017F00005B0F0BD20680168FF22A132914301606D
:101800002068816849084900816020212046803095
:10181000016041600020603420770320E8E7012068
:10182000E3E700000FB410B503A9044B044A029883
:1018300000F03AF810BC08BC04B01847751A00084C
:10184000D80000208307FF22DB0E9A408907090E8B
:101850009940002808DB830809489B001B1818687A
:1018600090430843186070470007000F083883084A
:1018700004489B001B18D86990430843D8617047FF
:1018800000E400E000ED00E002E008C8121F08C11B
:10189000002AFAD170477047002001E001C1121FF1
:1018A000002AFBD170470000FFB58DB00F460546FA
:1018B000002606E025280AD0109A0F9990476D1C43
:1018C000761C28780028F5D1304611B0F0BD0024F0
:1018D0000121674A009400E004436D1C2B78084600
:1018E000203B98401042F7D128782E2815D10420AB
:1018F000044368786D1C2A280AD101CF6D1C009022
:101900000BE000990A225143303940186D1C0090B9
:101910002878014630390929F3D92878692843D035
:1019200006DC0028D0D063280BD0642804D13BE02B
:1019300073280FD075284CD0109A0F999047761CB9
:1019400094E03878694608720020487202A8019035
:10195000012003E0386801900020C0433F1D61076B
:101960000CD5002400E0641C00998C420FDA8442FC
:10197000F9DB0199095D0029F5D108E0002400E0B8
:10198000641C8442FCDB0199095D0029F8D13619F9
:1019900007E0019801990078491C0191109A0F996C
:1019A0009047641EF5D261E00A20019001CF002823
:1019B00002DA40422D2102E0210504D52B216A469E
:1019C0001172012103E0E10701D02021F7E70C911A
:1019D00004E00A20019001CF00210C910BA90B918A
:1019E00008E00199FEF782FB0A460B993032491E46
:1019F0000B910A700028F4D10B9803A9081A203023
:101A00000190600701D5009801E001200090019944
:101A1000884203DD01460198081A00E000200024F6
:101A2000009006E002A8109A005D0F999047641C90
:101A3000761C0C988442F5DB04E0109A30200F9954
:101A40009047761C0099481E00900029F5DC08E0BC
:101A50000B980B990078491C0B91109A0F9990479D
:101A6000761C0199481E01900029F1DC6D1C28E7C5
:101A70000928010013B5044B012269460348FFF70A
:101A8000C9F900981CBD0000FFFF0000DC00002029
:101A900086B0FEF7A3FCFFF75AFA14216846FEF75A
:101AA00084FB1448416B012529434163406B0524A5
:101AB000284024070590002220212046FEF779FCCB
:101AC0002020009000200290039001956946204656
:101AD000FEF7CEFBFFF710FA074D20212046FEF758
:101AE00061FC06A0FFF79EFE00F020F82846FEF7F6
:101AF000ADFBF2E700100240881300002D2D3E20C0
:101B0000534D54333220455353454E5449414C5361
:101B1000205072696E746620746F20284C502955CD
:101B2000415254202B2B200D0A000000F0B59BB031
:101B3000342226496846FEF71FFB7D200001FEF790
:101B400085FB694622A0FFF76DFE6846FEF744FB61
:101B500006462348FEF740FB0746002516E0002412
:101B600011E06846415D1E48005D81420AD11C4873
:101B7000A100283041580DA8FEF722FB19A10DA89D
:101B8000FEF71EFB641CBC42EBDB6D1CB542E6DBC2
:101B90000DA915A0FFF746FE1BA0FFF743FE002589
:101BA0000DE06846475D8024274201D0012100E016
:101BB00000211AA0FFF736FE6408F5D16D1CB5426E
:101BC000EFDB17A0FFF72EFE1BB0F0BD241C0008B2
:101BD000496E7075742069733A2025730D0A0000F0
:101BE0000000002020000000546865206D6F7273B3
:101BF0006520636F6465206F7574707574206973F8
:101C00003A2025730D0A00005468652062696E61F0
:101C10007279206F75747075743A20002564000025
:101C20000A00000048656C6C6F20776F726C64006E
:101C300000000000000000000000000000000000A4
:101C40000000000000000000000000000000000094
:101C50000000000000000000000000000000000084
:101C60000000000000000000000000000000000074
:101C70000000000000000000010000000200000061
:101C80000300000004000000060000000700000040
:101C90000800000009000000000000000000000033
:101CA0000000000000000000010000000200000031
:101CB00003000000040000002D2D2D2D2D0000003C
:101CC0002E2D2D2D2D0000002E2E2D2D2D0000004F
:101CD0002E2D2D2D000000002D2D2D002D2E2D2D13
:101CE000000000002D2D2E2E2D2D00002E2E2E2D2D
:101CF0002D0000002E2D2D002D2D00002D2D2E2D20
:101D0000000000002E2D2E2D2E2D00002D2E2D003A
:101D10002D2E2E2D000000002E2E2E2E2D00000028
:101D20002E2E2E2D000000002E2E2D002E2D000018
:101D30002D0000002D2D2D2D2E0000002E2D2D2DDF
:101D40002E0000002D2D2E002D2E2D2E0000000027
:101D50002E2E2D2E000000002E2D2E002D2E0000E8
:101D60002D2D2D2E2E0000002E2E2D2D2E2E00007E
:101D70002D2D2E2E000000002E2D2E2E00000000F6
:101D80002D2E2E002D2D2E2E2E0000002D2E2E2E2F
:101D9000000000002D2E2E2E2E0000002E2E2E2EA6
:101DA0002E0000002E2E2E2E000000002E2E2E00C3
:101DB0002E2E00002E00000000000000DC1D000898
:101DC00000000020DC00000088180008B81E000891
:101DD000DC0000208C040000981800086162636435
:101DE00065666768696A6B6C6D6E6F70717273742B
:101DF00075767778797A3132333435363738393009
:101E00002C2E3F202C1D00088C1D0008481D0008AA
:101E1000801D0008B41D0008501D0008441D000866
:101E2000A41D0008B01D0008D01C00080C1D0008EF
:101E3000781D0008F81C00085C1D0008D81C00086C
:101E40003C1D0008FC1C0008581D0008AC1D0008C3
:101E5000301D0008281D0008201D0008F41C000883
:101E6000101D0008DC1C0008701D0008C01C0008C4
:101E7000C81C0008EC1C0008181D00089C1D000868
:101E8000941D0008841D0008601D0008341D000812
:101E9000B81C0008E41C0008041D0008681D0008A8
:101EA000B81D000804000000010000000000000050
:081EB0000024F4000000000012
:04000005080000BD32
:00000001FF
