:020000040800F2
:10000000B0040020D1000008C1150008F514000854
:1000100000000000000000000000000000000000E0
:10002000000000000000000000000000C5150008EE
:100030000000000000000000C3150008C7150008FC
:10004000E3000008E3000008E3000008E300000804
:10005000E3000008E3000008E3000008E9060008E8
:10006000E3000008E3000008E3000008E3000008E4
:10007000E3000008E3000008E3000008E3000008D4
:10008000E3000008E3000008E3000008E3000008C4
:10009000E3000008E3000008E3000008E3000008B4
:1000A000E3000008E3000008E3000008E3000008A4
:1000B000E3000008E3000008E30000080348854669
:1000C00000F01EF90048004731200008B00400206D
:1000D0000448804704480047FEE7FEE7FEE7FEE7E6
:1000E000FEE7FEE741160008BD00000830B50B46EC
:1000F000014600202022012409E00D46D5409D4202
:1001000005D31D469540491B254695404019154687
:10011000521E002DF1DC30BDF0B51FB406460020A4
:1001200082B005464024019100901BE001992246CF
:100130000F46304600F0C6F8049A059B801A994194
:1001400010D310461946224600F0ACF8361A8F41FB
:100150000197224601200021009F00F0A3F83818E3
:100160004D4100902046641E0028DFDC019B009872
:100170002946324607B0F0BDD2B201E00270401C01
:10018000491EFBD270470022F6E710B513460A4617
:1001900004461946FFF7F0FF204610BD0FB400B526
:1001A00089B00BA800906A4603480A9900F09CF8B1
:1001B00009B008BC04B0184708000020FFB50020B3
:1001C00083B00090506801909169144600269768AA
:1001D0000498884705460C990698084305D009E01D
:1001E000A169761C049888470546216A28468847F5
:1001F0000028F5D1681C03D00198C00704D017E08F
:100200000020C04307B0F0BD2068011D21600068D8
:1002100000900DE00198C00704D100980570009887
:10022000401C0090A169761C7F1E049888470546F3
:10023000002F1CDD681C1AD0069800280FD0E81784
:10024000C00E401941118A00069940095118400119
:100250002A1A0968012090400142DBD107E00C987E
:100260000028D7D1216A284688470028D2D0E169E2
:10027000049888470C98002807D1002E05DD0198C6
:10028000C00702D1009800210170A068B84204DDC7
:100290000C98002804D0002F02D00120C043B1E701
:1002A0003046AFE710B5202A04DB0146203A9140E2
:1002B000002010BD914020239C1A0346E3401943BF
:1002C000904010BD10B5202A04DB0846203AD040EB
:1002D000002110BD0B46D340D0402024A21A9140EB
:1002E0000843194610BD000010B5034B9361034B42
:1002F000D36100F033F810BDF91F00084303000874
:10030000064C0125064E05E0E36807CC2B430C3C68
:1003100098471034B442F7D3FFF7D4FE60210008A9
:100320008021000810B5094908784C1C002803D02A
:10033000401E0870205C10BD00210720ABBE20705D
:1003400010BD02490878421C0A7070471C0000204A
:1003500002681378511801601846704710B5D160D3
:10036000044951610449116200211161114600F0F4
:100370000DF810BD510300087D03000810B50F21D2
:10038000C0B2490200F09EF910BD0000F3B58DB077
:1003900000200A9001200B90002608460C300C46E5
:1003A00009906269012109989047051E2ED0252DDC
:1003B0002DD0216A8847002818D062690121099848
:1003C0009047216A88470028F7D1411E6269099841
:1003D000904700E0761CA1690D988847216A8847FC
:1003E0000028F7D1E1690D988847DAE7A1690D98EF
:1003F00088470746A84201D1761CD2E7E1690D98EB
:1004000088477F1C02D10A98002877D049E100274D
:1004100062693D463946099890472A280CD162699D
:10042000012109989047012506E00A214F433F1812
:10043000303FEBD4102005436269012109989047B1
:10044000014630390A2903D29B498F42DEDCECE7B2
:10045000E90600D4994F6C280AD04C2810D068289F
:1004600024D06A282ED074280CD07A280AD00DE027
:1004700062690121099890476C2823D004211CE06F
:10048000202005436269012109989047A7606560B3
:1004900065284FD026DC582839D01ADC452849D0A9
:1004A00012DC252834D04128B0D143E06269012113
:1004B00009989047682802D008210D43E6E70120FB
:1004C000C002DEE70220DCE7462833D047282CD1E3
:1004D00030E05B2870D061282CD063286CD0642871
:1004E00023D161E06F284FD009DC662822D067282D
:1004F00020D0692826D06E2817D12EE0CDE07028B4
:100500004DD073286FD075284ED078280DD154E087
:10051000A1690D9888470546252800D16CE7E16957
:100520000D9888476D1C00D16DE7BAE00A224CE0B7
:100530000A2252E0012023466A46C0430D99C04674
:10054000C046A3E02846402108436060A807234630
:1005500001D5002239E000223FE0E80700D020E783
:100560002068011D21600068290501D5067018E783
:10057000290701D5068014E7A90703D5F1170660FE
:1005800041600EE706600CE72846402108436060A2
:10059000A807234601D5082217E008221DE0484994
:1005A00028460840606016E0284640210843606005
:1005B000A8072346BCD5B9E715E0284640210843E3
:1005C0006060A80707D5234610220120C0430D997B
:1005D000C046C0465AE0234610220120C0430D9970
:1005E000C046C04652E000210C910B4600916328A2
:1005F00002D05B2807D043E0E80601D40120A060C8
:10060000012000903CE062690121099890475E2832
:1006100005D101200C900146626909989047216933
:10062000002906D10B4601AA8F00491CD351082985
:10063000FADB002835D0216900290ED1C117C90E77
:1006400009184A11930001AA9A1849094901411A47
:1006500001201368884003431360626901210998EF
:1006600090475D28E5D10C98002808D0002001AB08
:1006700081005A58401CD2435A500828F8DB01AB7D
:1006800001202246C0430D99FFF798FD00280ADAA1
:10069000401C06D10B98002803D00020C0430FB0A7
:1006A000F0BD0A98FBE7E90702D10A99491C0A91B3
:1006B000361800200B9074E6CCCCCC0CFFFFFF7FEB
:1006C000F1F7FFFF7F2801D9002207E0054B420820
:1006D0009A5CC00700D112091207120F0120904046
:1006E000084070472021000810B50120400300F0A9
:1006F00003F810BD7047000070B5084D0446E86867
:10070000204203D0EC60204600F00AF8286920421D
:1007100003D02C612046FFF7EDFF70BD00180240AA
:1007200010B506490878401C0870C00704D00520A1
:100730002021000700F09EF810BD000000000020FE
:10074000F0B5002388E001229A409446144022002C
:100750007ED04C68022C01D0122C0CD1DC08A400F5
:1007600027183C6A5D07ED0E0F26AE40B4430E69B4
:10077000AE4026433E6205685E000324B4400F7914
:10078000A543BF07BF0FB7402F4307604D68012D3A
:1007900005D0022D03D0112D01D0122D0ED1856868
:1007A000CF68A543B7402F43876047686546AF438E
:1007B0000D79ED06ED0F9D403D434560C568A543AD
:1007C0008C68B4402C43C4604C68E40043D59D0859
:1007D000244CAD002F193C6E9D07EE0E0F25B54041
:1007E000AC4305252D07A84201D100250FE01E4D81
:1007F000A84201D101250AE01C4DA84201D10225E1
:1008000005E01B4DA84201D1032500E00525B540B8
:100810002543144C3D66134D80352E684F68964332
:10082000FF0300D516432E606E684F689643BF03E2
:1008300000D516436E6025684E689543F60200D5D4
:100840001543256065684E689543B60202D500E001
:1008500001E0154365605B1C0A681446DA4000D06D
:1008600071E7F0BD0018024000040050000800507D
:10087000000C005043690A469A4300D10904816183
:100880007047002A01D08161704781627047000083
:1008900001488068704700000C0000200248816811
:1008A00042688918816070470C00002010B5084824
:1008B00000240168821511430160204600F00AF807
:1008C000002801D0012401E000F028F8204610BDE6
:1008D0000020024070B50F4E0024716805460029C3
:1008E00015D07D20C000FFF701FC01460A480068D2
:1008F000FFF7FCFB00F016FC002808D1042D06D2FF
:1009000000222946401E00F02BF8356000E001244B
:10091000204670BD0C0000201800002008B50948D2
:1009200001680122114301600068104000900548F1
:100930004038C26B01040A43C263C06B0840009098
:1009400008BD000040100240002805DBC106C90EAA
:1009500001208840014908607047000000E100E084
:1009600010B501F0AFFA10BD10B50F4C216803228D
:100970005202914301432160C11FFF39FA390ED160
:100980000A480621006848430949FFF7AFFB401CAD
:1009900002E0002805D0401E61694905F9D4002015
:1009A00010BD032010BD00000070004018000020A2
:1009B00040420F00FEB5044600680027704D714E9E
:1009C000800355D500200090F06BC00007D4F16B78
:1009D000A8050143F163F16B0140012000906A48D2
:1009E0000168821511430160FFF752FF019005E095
:1009F000FFF74EFF0199401A022825D86248006887
:100A0000C005F5D5E8690321090208400FD0216B24
:100A100081420CD0E86903210902EA698843012177
:100A200009040A43EA61EA698A43EA61E861C007A6
:100A30000FD0FFF72DFF019008E0FFF729FF019984
:100A4000411A5248814201D9032709E0E869800729
:100A5000F3D5E869032109028843216B0843E86163
:100A60000098002804D0F16B012000078143F16356
:100A70002078C00705D06869616880088000084355
:100A800068612078800705D568690C218843A168D2
:100A9000084368612078800606D5686903218902C9
:100AA0008843E168084368612088800506D5686945
:100AB000032189048843A1690843686120884005AF
:100AC00006D56869032109058843E169084368611F
:100AD0002078400606D56869032109038843216907
:100AE00008436861208840040ED56869216A800047
:100AF0008008084368610121206A8907884203D180
:100B0000F06889130843F0602068000305D5686920
:100B100040218843616A08436861206881021C485B
:100B20000BD569698210A36A914319436961A16A6F
:100B3000914202D1F1680143F160216849020AD56E
:100B40006969E26A814311436961E16A814202D1C4
:100B5000F1680143F160208800050FD56869032121
:100B600089038843616908436861012160698903D9
:100B7000884203D1F06889000843F0603846FEBD22
:100B80004010024000100240007000408813000036
:100B900000000001F8B50F46060043D04C4D286810
:100BA0004007400FB84213D22868C008C00038433D
:100BB0002860FFF76DFE044605E0FFF769FE011BA4
:100BC0004448814261D828684007400FB842F4D1B8
:100BD0003068414C81070DD5400704D5A068072136
:100BE00009030843A060A0680F2109028843B16887
:100BF0000843A0603078C00732D0706801280AD05E
:100C000002280BD000280FD03349403103280ED0E2
:100C1000C969890704E02168890301E02168890125
:100C2000002906DB0120F8BD21684905F8E7096ABB
:100C3000EFE7A168C908C9000143A160FFF728FEDA
:100C4000009006E0FFF724FE0099411A21488142F6
:100C50001BD8A068382108407168C9008842F1D1CA
:100C600028684007400FB84217D919480168C908D9
:100C7000C90039430160FFF70BFE054607E0FFF7A7
:100C800007FE411B1348814201D90320F8BD1048DB
:100C900000684007400FB842F1D13078400706D5D0
:100CA000A068072109038843F1680843A06000F0A9
:100CB0002DF8A1683C2289091140084A515CC906F7
:100CC000C90EC840064908600020FFF703FEF8BDC2
:100CD000002002408813000000100240C0200008DD
:100CE0001800002006480749006889681C22890A04
:100CF0001140054A515CC906C90EC8407047000042
:100D000018000020001002400021000810B5204CFF
:100D1000A068204A8006400F16D0A0688006410FC8
:100D2000501001290FD0A1688906490F022912D05D
:100D3000A0688006400F042823D0A0688006400FDA
:100D4000032821D0002010BD206801218004400F1D
:100D50008140104612E0E1688B07E1689B0F49066D
:100D6000490F491C032B00D01046FFF7BFF9E1687B
:100D70004904490E4843E168490F491CFFF7B6F999
:100D800010BD0120C00310BD7D20000210BD000079
:100D9000001002400024F400F8B5040070D0207860
:100DA0003827C007D84D002846D0A968E8683940E0
:100DB0008007800F102902D008290BD001E00328FA
:100DC00008D001206268000482420AD129680143E8
:100DD000296015E0286880032ED560680028DDD0E2
:100DE0002AE0052301211B0489049A422A6802D1C2
:100DF0000A432A60EAE782432A6028688843286019
:100E0000606800280CD0FFF743FD064604E0FFF7BA
:100E10003FFD801B64286FD828688003F7D50BE05E
:100E2000FFF736FD064604E0FFF732FD801B64281D
:100E3000F1D828688003F7D42078800765D5A868A2
:100E4000E96838408A077F260721920F3602C902D7
:100E5000102802D0002814D001E0022A11D0E06846
:100E6000002840D028688843216908432860286802
:100E7000FF21013108432860FFF70AFD074628E0FB
:100E800097E02A68520502D5E268002A86D06A688F
:100E90006369B2431B021A436A6000280ED12868B6
:100EA0008843216908432860286801218004400F95
:100EB00081409648FFF71AF9954908600020FFF72E
:100EC00009FD002875D120E0FFF7E2FCC01B0228D5
:100ED000A1D828684005F7D568686169B043090260
:100EE0000843686011E02968FF20013081432960D0
:100EF000FFF7CEFC064605E098E0FFF7C9FC801B33
:100F0000022888D828684005F7D42078814E000749
:100F10002ED5A8688006400F03280AD0A0690028B3
:100F2000306A16D0012108433062FFF7B1FC074652
:100F30000BE0306A80071BD5A069002839D017E084
:100F4000FFF7A6FCC01B022870D8306A8007F7D5CF
:100F50000EE0400840003062FFF79AFC074604E0CC
:100F6000FFF796FCC01B022860D8306A8007F7D4D0
:100F7000207840076CD5A86800278006400F042819
:100F800018D0E86BC00008D4E96B012000070143CA
:100F9000E963E96B0140012700915F480168C905D9
:100FA00019D40168821511430160FFF771FC0090AC
:100FB0000DE083E0F06980074AD5A06800287DD065
:100FC00046E0FFF765FC0099401A02282ED85248E7
:100FD0000068C005F5D5A168012910D004200529B5
:100FE000F16911D049084900F161F1698143F1616A
:100FF000A068002816D0FFF74BFC00900EE0F069C7
:1010000001210843F061F3E70143F161F7E7FFF7DE
:101010003FFC0099411A414881426BD8F069800732
:10102000F5D50EE0FFF734FC009007E062E0FFF733
:101030002FFC0099411A394881425BD8F06980073A
:10104000F5D4002F04D0E86B012109078843E86339
:10105000E069002853D0A9688906490F022950D0B9
:1010600001263606022828680DD0B0432860E868BB
:1010700080088000E860E86829490840E860FFF7D8
:1010800007FC044638E0B0432860FFF701FC074640
:1010900004E0FFF7FDFBC01B02282BD82868800165
:1010A000F7D4216B606BA26A0843E16A1202114314
:1010B0000843616A0843216A084300E021E0E860D0
:1010C000286830432860E868012109070843E86080
:1010D000FFF7DEFB044604E0FFF7DAFB001B022803
:1010E00008D828688001F7D509E0FFF7D1FB001B7D
:1010F000022801D90320F8BD28688001F5D400201A
:10110000F8BD0120F8BD0000001002400024F400EA
:1011100018000020401002400070004088130000BA
:10112000FFFFFEEE094910B5401E884201D901209B
:1011300010BD074C60610321081F00F0C3FE0020B2
:10114000A06107202061002010BD0000FFFFFF000C
:1011500000E000E030B5014660310A7F012A18D076
:1011600001220A7724230246803214461360036862
:101170001A681D686D086D001D6001235B079A43A6
:101180000023436600680260202020600B77184629
:1011900030BD022030BDF8B5054604466035287FD5
:1011A00001281DD0012028772422204680300746C0
:1011B00002602068066802685208520002602068D7
:1011C000826807235B069A430A438260204600F048
:1011D0003FFA206806602020386000202877F8BD9C
:1011E0000220F8BDF8B5054604466035287F012881
:1011F0001CD0012028772422204680300746026038
:1012000020680668026852085200026020688268FE
:10121000D200D2080A438260204600F019FA206802
:1012200006602020386000202877F8BD0220F8BD35
:1012300070B5040006D020468030054600680028BE
:1012400002D007E0012070BD00217C20015520461E
:1012500000F026F824202860206801684908490029
:101260000160204600F0BCFA0128ECD0A06A0028FA
:1012700002D0204600F01CFA206841680922D20200
:1012800091434160206881682A22914381602068EF
:101290000168012211430160204600F06FFA70BD21
:1012A00010B586B0044614216846FEF76CFF11495C
:1012B000206888421CD11048C26B49010A43C263AE
:1012C000C26B0A400592416B012211434163406B9E
:1012D0006946104005900C200090022001900020EB
:1012E000029003900620049005200007FFF728FADB
:1012F00006B010BD0080004000100240FFB5074658
:1013000004468037786887B00E4620287DD1002EAD
:101310000CD00998002809D00120A168000381425F
:1013200007D12069002804D1F00702D001200BB0BA
:10133000F0BD204660300390007F012865D00398FF
:10134000012101770020B86022207860FFF7A0FA21
:101350000590254640350998A8830998E88301211E
:10136000A0680903FF22884204D12369002B0BD116
:10137000274A09E0002812D001221207904213D117
:101380002269002A0ED03F222A8492B20292884219
:1013900002D12069002809D00196002608E02369BF
:1013A000002BF1D07F22EFE70022EDE70020019033
:1013B000D0B20490E88B002821D00A980090002237
:1013C00020212046059B00F039FD002801D0032094
:1013D000ADE7019800282068406A0BD004990840C6
:1013E000019908700198401C0190E88B401EE88329
:1013F000E0E70AE0029908403080B61CF5E72020BB
:10140000786003990020087791E702208FE70000B9
:10141000FF010000FFB5074604468037386885B0F5
:101420000D46202864D1002D0CD00798002809D043
:101430000120A1680003814207D12069002804D15E
:10144000E80702D0012009B0F0BD204660300290CC
:10145000007F01284CD00298012101770020B8605C
:1014600021203860FFF714FA01902646403607988D
:10147000B0820798F0820120A1680003814202D166
:101480002069002802D00395002515E00020039074
:1014900012E000228021204600F0D0FC002818D164
:1014A0000398002817D02168007888620398401CB0
:1014B0000390F08A401EF082F08A019B0028089871
:1014C0000090E6D100224021204600F0B7FC002821
:1014D00008D00320B7E728882168C005C00D8862BE
:1014E000AD1CE6E720203860029900200877AAE7C3
:1014F0000220A8E7FEE7000070B586B01421684618
:10150000FEF741FE1948426B04210A434263426BD5
:101510000A400592416B012529434163406B052632
:10152000284036070590002220213046FFF7A9F910
:10153000680300900E4800240190694602940D480B
:10154000FFF7FEF82020009002946946019503946D
:101550003046FFF7F5F8002211460720FFF700FAA2
:101560000720FFF7F1F906B070BD0000001002403F
:10157000000011100008005010B510480E4901601D
:10158000E1214902416000218160C1600161816106
:10159000016241620C22816242614166FFF748FEAE
:1015A00000210648FFF71EFE00210448FFF7F3FD67
:1015B0000248FFF7CFFD10BD008000402000002052
:1015C00070477047704710B5FFF768F910BD30B528
:1015D0009FB038216846FEF7D6FD00241B941C946A
:1015E0001D9434210EA81E94FEF7CDFD012040026B
:1015F000FFF7BAF90225E801039000954020059015
:1016000008200A9080030B90079500020C90089523
:10161000000104940D9009946846FFF7BDFB072074
:101620001B901D9402211C951E941BA8FFF7B2FA73
:1016300020200E9011940EA8FFF7BCF91FB030BD0A
:1016400001200249C00688607047000000ED00E0FC
:10165000F0B513A106C985B00192009112A206CA85
:10166000039202910446416E4034002915D000686F
:101670008168806809014D0F400F02AE315C6F46F2
:10168000385CC000FEF732FD6085785D715DC0009A
:10169000FEF72CFD208505B0F0BD01206085F9E73F
:1016A000010101030701000008040204080101010F
:1016B00010B5018DC90707D001684A6801235B0492
:1016C0009A43C36A1A434A60018D890707D50168A6
:1016D0004A6801231B049A43036B1A434A60018D35
:1016E000490707D501684A6801239B049A43436B65
:1016F0001A434A60018D090707D501684A6801232A
:10170000DB039A43836B1A434A60018DC90607D5F0
:101710000268916801231B039943C36B19439160CD
:10172000018D890607D501688A6801235B039A4306
:10173000036C1A438A60018D490612D503685A6802
:1017400001210905446C8A4322435A60426C8A4253
:1017500007D10268516803235B059943836C1943E1
:101760005160018D090607D501684A680123DB0431
:10177000C06C9A4302434A6010BD0000FEB50546A6
:10178000002680350446AE60FFF782F8019020689D
:101790000068124F000709D5012100970022490572
:1017A0002046019B00F04AFB00280DD1206800680C
:1017B00040070BD501210097002289052046019B97
:1017C00000F03CFB002801D00320FEBD2020286053
:1017D0006860603426770020FEBD0000FFFFFF0137
:1017E000F8B50446036880682269E56910436269B8
:1017F00000262A431043626EF24902431868F24DF4
:101800002840104318602268506803231B03984344
:10181000E368184350602268A0698A4201D0236AB5
:1018200018439368E94D2B40034393602068C26AD4
:10183000636A120912011A43C262E54B2068E54A45
:1018400098420AD152699207920F39D0012A3BD0AF
:10185000022A37D0032A25D122E0DF4B98420AD151
:1018600052690C231A402BD0042A2DD0082A29D0E3
:101870000C2A17D114E0D94B984221D0D84B98426A
:101880001ED088420ED1536903229202134017D012
:10189000012292029B1A17D09B1A13D0934201D1B6
:1018A000082700E01027FF25013588426FD1002F5F
:1018B0000CD0022F3BD0042F7CD0082F69D182E0BE
:1018C0000027F0E70227EEE70427ECE7FFF70AFA24
:1018D00072E0022129E0022812D0032812D0042845
:1018E00012D0052812D0062812D0072812D00828B6
:1018F00012D0092812D00A2812D00B2814D111E0D6
:10190000042112E0062110E008210EE00A210CE07B
:101910000C210AE0102108E0202106E0402104E02B
:10192000802102E0294600E0012110461AE0606AA9
:10193000002815D0012824D0022824D0032824D040
:10194000042827D0052827D0062827D0072827D005
:10195000082827D0092827D00A2827D00B2827D0E5
:101960000121A048FEF7C2FB002860D06168009109
:101970004A008918814259D800990903814255D3F8
:1019800056E00221EDE70421EBE70621E9E738E123
:1019900010E04BE00821E4E70A21E2E70C21E0E750
:1019A0001021DEE72021DCE74021DAE78021D8E7BB
:1019B0002946D6E7FFF7AAF90246606A0028B3D0A5
:1019C000012888D185E7606A002815D0012817D042
:1019D000022817D0032817D0042817D0052817D0BD
:1019E000062817D0072817D0082817D0092817D09D
:1019F0000A2817D00B2817D001210120C003B1E716
:101A00000221FAE70421F8E70621F6E70821F4E7C6
:101A10000A21F2E70C21F0E71021EEE72021ECE7A4
:101A20004021EAE78021E8E72946E6E70126DBE1F5
:101A3000002F31D0022F7BD0042F72D0082FF5D188
:101A4000606A002815D001286CD002286BD00328CA
:101A50006AD0042869D0052868D0062867D00728EE
:101A60007ED008287DD009287CD00A287BD00B287E
:101A700000D00125002701202A463B46C003002153
:101A8000FEF74AFB020E09021143020200984008C9
:101A900010187941009A39E0FFF724F982E0012A11
:101AA00015D0022A15D0032A15D0042A15D0052AEC
:101AB00015D0062A15D0072A15D0082A15D0092ACC
:101AC00015D00A2A15D00B2A14D0012512E00225C0
:101AD00010E004250EE006250CE008250AE00A25A2
:101AE00008E00C2506E0102504E0202502E0402552
:101AF00000E080252A460023FEF70EFB020E0902B5
:101B00001143626803025008181879410023FEF758
:101B100003FB03210902421A33498A4270D985E73F
:101B200006E03DE044E045E046E047E048E05DE0B7
:101B3000606A00281AD001281ED002281ED003286F
:101B40001ED004281ED005281ED006281ED0072827
:101B50001ED008281ED009281ED00A281ED003E057
:101B600046E047E048E049E00B2800D00125002787
:101B70002A463B461B4882E70225F8E70425F6E79C
:101B80000625F4E70825F2E70A25F0E70C25EEE73D
:101B90001025ECE72025EAE74025E8E78025E6E781
:101BA000FFF7B4F80027626A3946002A8DD076E73D
:101BB00002255FE704255DE706255BE7082559E771
:101BC0000A2557E700800040F369FFCFFFF4FF11BB
:101BD00000380140401002400044004000480040EE
:101BE000004C00400024F400FFFC0F000C2541E7EE
:101BF00010253FE720253DE740253BE7802539E7D5
:101C0000F0E00122E069D20390426ED1002F06D0AD
:101C1000022F35D0042F7AD0082F80D17AE0FFF739
:101C200061F876E0012815D0022815D0032815D0D8
:101C3000042815D0052815D0062815D0072815D05A
:101C4000082815D0092815D00A2815D00B2814D03B
:101C5000012512E0022510E004250EE006250CE027
:101C600008250AE00A2508E00C2506E0102504E016
:101C7000202502E0402500E08025294610461BE093
:101C8000606A002815D001282BD002282BD0032809
:101C90002DD004282DD005282DD006282DD007289A
:101CA0002DD008282DD009282DD00A282DD00B287A
:101CB00000D0012529465F48FEF718FA6168400008
:101CC0004A088018FEF712FA80B201465A4A1039C3
:101CD000914200D9AAE6511C01400007400F084379
:101CE00080E00225E6E70425E4E717E00FE006259B
:101CF000E0E70825DEE70A25DCE70C25DAE7102512
:101D0000D8E72025D6E74025D4E78025D2E7FEF79F
:101D1000FDFF0246606A00289AD083E7002F06D0B4
:101D2000022F35D0042F7ED0082FD3D17EE0FEF7CE
:101D3000D9FF7AE0012815D0022815D0032815D044
:101D4000042815D0052815D0062815D0072815D049
:101D5000082815D0092815D00A2815D00B2814D02A
:101D6000012512E0022510E004250EE006250CE016
:101D700008250AE00A2508E00C2506E0102504E005
:101D8000202502E0402500E08025294610461BE082
:101D9000606A002815D0012830D0022830D00328EE
:101DA00030D0042831D0052831D0062831D007287A
:101DB00031D0082831D0092831D00A2831D00B2859
:101DC00000D0012529461B48FEF790F961684A08B2
:101DD0008018FEF78BF980B20146174A10399142FC
:101DE00000D923E62168C8602046012140304185A2
:101DF00001850020E06620673046F8BD0225E1E756
:101E00000425DFE70625DDE70DE00825DAE70A25EA
:101E1000D8E70C25D6E71025D4E72025D2E74025C2
:101E2000D0E78025CEE7FEF771FF0246606A002802
:101E300096D07FE70024F400EFFF0000FFB581B0EB
:101E400017460E4604460A9D09E0681C07D0FEF7B7
:101E50001FFD0499401AA8420CD8002D0AD0206812
:101E6000C169304688431AD00020B842EDD0002026
:101E700005B0F0BD20680168FF22A13291430160E6
:101E8000206881684908490081602021204680300F
:101E9000016041600020603420770320E8E70120E2
:101EA000E3E700000FB410B503A9044B044A0298FD
:101EB00000F039F810BC08BC04B018471520000821
:101EC000040000208307FF22DB0E9A408907090ED9
:101ED0009940002808DB830809489B001B181868F4
:101EE00090430843186070470007000F08388308C4
:101EF00004489B001B18D86990430843D861704779
:101F000000E400E000ED00E002E008C8121F08C194
:101F1000002AFAD170477047002001E001C1121F6A
:101F2000002AFBD17047FFB581B00546002706E0C7
:101F300025280AD0049A039990476D1C7F1C2878A5
:101F40000028F5D1384605B0F0BD002269786D1C37
:101F500010462E2913D1697804226D1C2A2909D133
:101F600002996D1C01C9029109E00A2358433038D7
:101F700008186D1C29780B46303B092BF5D92B78B6
:101F8000002BDFD0632B07D0732B10D0049A184698
:101F9000039990477F1C2DE002996C460B782370C3
:101FA000091D0291002161706E46012104E0029931
:101FB00040C902910021C94352070AD5002400E01C
:101FC000641C84420DDA8C42FADB325D002AF7D1C0
:101FD00007E0002400E0641C8C42FCDB305D00283C
:101FE000F9D13F1904E03078049A761C03999047A0
:101FF000641EF8D26D1CA2E708B5044B01226946A5
:102000000348FFF77BF9009808BD0000FFFF0000C0
:102010002000002013B5044B012269460348FFF756
:10202000F9F900981CBD0000FFFF0000200000200F
:102030008EB0FEF73BFCFFF7CAFAFFF75DFAFFF739
:102040009BFA09A0FFF72EFF694615A0FEF7A6F838
:1020500014A0FFF727FF14A0FFF724FF694610A084
:10206000FFF720FFF0E70000456E74657220776887
:1020700061746576657220796F75206C696B652077
:10208000616E642070726573732073706163652084
:102090006F7220656E7465723A200A0D00000000B0
:1020A000257300000A0D00005468697320697320CD
:1020B000746865206F75747075743A2000000000B4
:1020C0000000000000000000000000000000000010
:1020D0000000000000000000000000000000000000
:1020E00001000000020000000300000004000000E6
:1020F00006000000070000000800000009000000C2
:1021000000000000000000000000000000000000CF
:1021100001000000020000000300000004000000B5
:10212000DDDDDDDDDCBBBBDDDDDDDDDDDDDDDDDD24
:102130009888888888888888777777777788888864
:1021400085555556666666666666666666688888FC
:102150008333333222222222222222222228888DF5
:10216000802100080000002020000000081F000857
:10217000A02100082000002090040000181F000883
:10218000000000000000000000000000040000004B
:1021900001000000000000000024F4000000000026
:04000005080000BD32
:00000001FF
